{
  "_format": "hh-sol-artifact-1",
  "contractName": "AttendanceRecord",
  "sourceName": "contracts/AttendanceRecord.sol",
  "abi": [
    {
      "anonymous": false,
      "inputs": [
        {
          "indexed": true,
          "internalType": "address",
          "name": "student",
          "type": "address"
        },
        {
          "indexed": false,
          "internalType": "bytes32",
          "name": "attendanceHash",
          "type": "bytes32"
        },
        {
          "indexed": false,
          "internalType": "uint256",
          "name": "timestamp",
          "type": "uint256"
        },
        {
          "indexed": false,
          "internalType": "uint256",
          "name": "recordIndex",
          "type": "uint256"
        }
      ],
      "name": "AttendanceRecorded",
      "type": "event"
    },
    {
      "inputs": [
        {
          "internalType": "uint256",
          "name": "_index",
          "type": "uint256"
        }
      ],
      "name": "getRecord",
      "outputs": [
        {
          "internalType": "address",
          "name": "student",
          "type": "address"
        },
        {
          "internalType": "bytes32",
          "name": "attendanceHash",
          "type": "bytes32"
        },
        {
          "internalType": "uint256",
          "name": "timestamp",
          "type": "uint256"
        }
      ],
      "stateMutability": "view",
      "type": "function"
    },
    {
      "inputs": [],
      "name": "getRecordCount",
      "outputs": [
        {
          "internalType": "uint256",
          "name": "",
          "type": "uint256"
        }
      ],
      "stateMutability": "view",
      "type": "function"
    },
    {
      "inputs": [
        {
          "internalType": "bytes32",
          "name": "",
          "type": "bytes32"
        }
      ],
      "name": "hashExists",
      "outputs": [
        {
          "internalType": "bool",
          "name": "",
          "type": "bool"
        }
      ],
      "stateMutability": "view",
      "type": "function"
    },
    {
      "inputs": [
        {
          "internalType": "bytes32",
          "name": "",
          "type": "bytes32"
        }
      ],
      "name": "hashToIndex",
      "outputs": [
        {
          "internalType": "uint256",
          "name": "",
          "type": "uint256"
        }
      ],
      "stateMutability": "view",
      "type": "function"
    },
    {
      "inputs": [
        {
          "internalType": "bytes32",
          "name": "_attendanceHash",
          "type": "bytes32"
        }
      ],
      "name": "recordAttendance",
      "outputs": [],
      "stateMutability": "nonpayable",
      "type": "function"
    },
    {
      "inputs": [
        {
          "internalType": "uint256",
          "name": "",
          "type": "uint256"
        }
      ],
      "name": "records",
      "outputs": [
        {
          "internalType": "address",
          "name": "student",
          "type": "address"
        },
        {
          "internalType": "bytes32",
          "name": "attendanceHash",
          "type": "bytes32"
        },
        {
          "internalType": "uint256",
          "name": "timestamp",
          "type": "uint256"
        }
      ],
      "stateMutability": "view",
      "type": "function"
    },
    {
      "inputs": [
        {
          "internalType": "bytes32",
          "name": "_attendanceHash",
          "type": "bytes32"
        }
      ],
      "name": "verifyAttendance",
      "outputs": [
        {
          "internalType": "bool",
          "name": "exists",
          "type": "bool"
        },
        {
          "internalType": "address",
          "name": "student",
          "type": "address"
        },
        {
          "internalType": "uint256",
          "name": "timestamp",
          "type": "uint256"
        }
      ],
      "stateMutability": "view",
      "type": "function"
    }
  ],
  "bytecode": "0x608060405234801561001057600080fd5b50610984806100206000396000f3fe608060405234801561001057600080fd5b506004361061007d5760003560e01c8063ab828b561161005b578063ab828b5614610118578063b535b5c314610134578063ca267f2814610164578063fda66f54146101825761007d565b806303e9e6091461008257806334461067146100b457806393fd8646146100e6575b600080fd5b61009c60048036038101906100979190610651565b6101b2565b6040516100ab939291906106e7565b60405180910390f35b6100ce60048036038101906100c99190610651565b6102b4565b6040516100dd939291906106e7565b60405180910390f35b61010060048036038101906100fb919061074a565b61030e565b60405161010f93929190610792565b60405180910390f35b610132600480360381019061012d919061074a565b610416565b005b61014e6004803603810190610149919061074a565b6105d2565b60405161015b91906107c9565b60405180910390f35b61016c6105f2565b60405161017991906107e4565b60405180910390f35b61019c6004803603810190610197919061074a565b6105fe565b6040516101a991906107e4565b60405180910390f35b6000806000808054905084106101fd576040517f08c379a00000000000000000000000000000000000000000000000000000000081526004016101f49061085c565b60405180910390fd5b60008085815481106102125761021161087c565b5b90600052602060002090600302016040518060600160405290816000820160009054906101000a900473ffffffffffffffffffffffffffffffffffffffff1673ffffffffffffffffffffffffffffffffffffffff1673ffffffffffffffffffffffffffffffffffffffff168152602001600182015481526020016002820154815250509050806000015181602001518260400151935093509350509193909250565b600081815481106102c457600080fd5b90600052602060002090600302016000915090508060000160009054906101000a900473ffffffffffffffffffffffffffffffffffffffff16908060010154908060020154905083565b60008060006001600085815260200190815260200160002060009054906101000a900460ff1661034857600080600092509250925061040f565b60006002600086815260200190815260200160002054905060008082815481106103755761037461087c565b5b90600052602060002090600302016040518060600160405290816000820160009054906101000a900473ffffffffffffffffffffffffffffffffffffffff1673ffffffffffffffffffffffffffffffffffffffff1673ffffffffffffffffffffffffffffffffffffffff16815260200160018201548152602001600282015481525050905060018160000151826040015194509450945050505b9193909250565b6001600082815260200190815260200160002060009054906101000a900460ff1615610477576040517f08c379a000000000000000000000000000000000000000000000000000000000815260040161046e906108f7565b60405180910390fd5b600080805490509050600060405180606001604052803373ffffffffffffffffffffffffffffffffffffffff16815260200184815260200142815250908060018154018082558091505060019003906000526020600020906003020160009091909190915060008201518160000160006101000a81548173ffffffffffffffffffffffffffffffffffffffff021916908373ffffffffffffffffffffffffffffffffffffffff16021790555060208201518160010155604082015181600201555050600180600084815260200190815260200160002060006101000a81548160ff0219169083151502179055508060026000848152602001908152602001600020819055503373ffffffffffffffffffffffffffffffffffffffff167f1371f9f7e37fda34a0eba653c0282fd8512f148a199e30164a36ebeaecb15cdc8342846040516105c693929190610917565b60405180910390a25050565b60016020528060005260406000206000915054906101000a900460ff1681565b60008080549050905090565b60026020528060005260406000206000915090505481565b600080fd5b6000819050919050565b61062e8161061b565b811461063957600080fd5b50565b60008135905061064b81610625565b92915050565b60006020828403121561066757610666610616565b5b60006106758482850161063c565b91505092915050565b600073ffffffffffffffffffffffffffffffffffffffff82169050919050565b60006106a98261067e565b9050919050565b6106b98161069e565b82525050565b6000819050919050565b6106d2816106bf565b82525050565b6106e18161061b565b82525050565b60006060820190506106fc60008301866106b0565b61070960208301856106c9565b61071660408301846106d8565b949350505050565b610727816106bf565b811461073257600080fd5b50565b6000813590506107448161071e565b92915050565b6000602082840312156107605761075f610616565b5b600061076e84828501610735565b91505092915050565b60008115159050919050565b61078c81610777565b82525050565b60006060820190506107a76000830186610783565b6107b460208301856106b0565b6107c160408301846106d8565b949350505050565b60006020820190506107de6000830184610783565b92915050565b60006020820190506107f960008301846106d8565b92915050565b600082825260208201905092915050565b7f496e646578206f7574206f6620626f756e647300000000000000000000000000600082015250565b60006108466013836107ff565b915061085182610810565b602082019050919050565b6000602082019050818103600083015261087581610839565b9050919050565b7f4e487b7100000000000000000000000000000000000000000000000000000000600052603260045260246000fd5b7f417474656e64616e636520616c7265616479207265636f726465640000000000600082015250565b60006108e1601b836107ff565b91506108ec826108ab565b602082019050919050565b60006020820190508181036000830152610910816108d4565b9050919050565b600060608201905061092c60008301866106c9565b61093960208301856106d8565b61094660408301846106d8565b94935050505056fea2646970667358221220e56f7008f17157e9184ff87e0441cd99e5ccbf0de591320acdaef356bbafa0a464736f6c63430008130033",
  "linkReferences": {},
  "deployedLinkReferences": {}
}