{
  "contractName": "AttendanceRecord",
  "abi": [
    {
      "anonymous": false,
      "inputs": [
        {
          "indexed": true,
          "internalType": "address",
          "name": "student",
          "type": "address"
        },
        {
          "indexed": false,
          "internalType": "bytes32",
          "name": "attendanceHash",
          "type": "bytes32"
        },
        {
          "indexed": false,
          "internalType": "uint256",
          "name": "timestamp",
          "type": "uint256"
        },
        {
          "indexed": false,
          "internalType": "uint256",
          "name": "recordIndex",
          "type": "uint256"
        }
      ],
      "name": "AttendanceRecorded",
      "type": "event"
    },
    {
      "inputs": [
        {
          "internalType": "bytes32",
          "name": "",
          "type": "bytes32"
        }
      ],
      "name": "hashExists",
      "outputs": [
        {
          "internalType": "bool",
          "name": "",
          "type": "bool"
        }
      ],
      "stateMutability": "view",
      "type": "function"
    },
    {
      "inputs": [
        {
          "internalType": "bytes32",
          "name": "",
          "type": "bytes32"
        }
      ],
      "name": "hashToIndex",
      "outputs": [
        {
          "internalType": "uint256",
          "name": "",
          "type": "uint256"
        }
      ],
      "stateMutability": "view",
      "type": "function"
    },
    {
      "inputs": [
        {
          "internalType": "uint256",
          "name": "",
          "type": "uint256"
        }
      ],
      "name": "records",
      "outputs": [
        {
          "internalType": "address",
          "name": "student",
          "type": "address"
        },
        {
          "internalType": "bytes32",
          "name": "attendanceHash",
          "type": "bytes32"
        },
        {
          "internalType": "uint256",
          "name": "timestamp",
          "type": "uint256"
        }
      ],
      "stateMutability": "view",
      "type": "function"
    },
    {
      "inputs": [
        {
          "internalType": "bytes32",
          "name": "_attendanceHash",
          "type": "bytes32"
        }
      ],
      "name": "recordAttendance",
      "outputs": [],
      "stateMutability": "nonpayable",
      "type": "function"
    },
    {
      "inputs": [
        {
          "internalType": "bytes32",
          "name": "_attendanceHash",
          "type": "bytes32"
        }
      ],
      "name": "verifyAttendance",
      "outputs": [
        {
          "internalType": "bool",
          "name": "exists",
          "type": "bool"
        },
        {
          "internalType": "address",
          "name": "student",
          "type": "address"
        },
        {
          "internalType": "uint256",
          "name": "timestamp",
          "type": "uint256"
        }
      ],
      "stateMutability": "view",
      "type": "function"
    },
    {
      "inputs": [],
      "name": "getRecordCount",
      "outputs": [
        {
          "internalType": "uint256",
          "name": "",
          "type": "uint256"
        }
      ],
      "stateMutability": "view",
      "type": "function"
    },
    {
      "inputs": [
        {
          "internalType": "uint256",
          "name": "_index",
          "type": "uint256"
        }
      ],
      "name": "getRecord",
      "outputs": [
        {
          "internalType": "address",
          "name": "student",
          "type": "address"
        },
        {
          "internalType": "bytes32",
          "name": "attendanceHash",
          "type": "bytes32"
        },
        {
          "internalType": "uint256",
          "name": "timestamp",
          "type": "uint256"
        }
      ],
      "stateMutability": "view",
      "type": "function"
    }
  ],
  "bytecode": "0x608060405234801561001057600080fd5b50610984806100206000396000f3fe608060405234801561001057600080fd5b506004361061007d5760003560e01c8063ab828b561161005b578063ab828b5614610118578063b535b5c314610134578063ca267f2814610164578063fda66f54146101825761007d565b806303e9e6091461008257806334461067146100b457806393fd8646146100e6575b600080fd5b61009c60048036038101906100979190610651565b6101b2565b6040516100ab939291906106e7565b60405180910390f35b6100ce60048036038101906100c99190610651565b6102b4565b6040516100dd939291906106e7565b60405180910390f35b61010060048036038101906100fb919061074a565b61030e565b60405161010f93929190610792565b60405180910390f35b610132600480360381019061012d919061074a565b610416565b005b61014e6004803603810190610149919061074a565b6105d2565b60405161015b91906107c9565b60405180910390f35b61016c6105f2565b60405161017991906107e4565b60405180910390f35b61019c6004803603810190610197919061074a565b6105fe565b6040516101a991906107e4565b60405180910390f35b6000806000808054905084106101fd576040517f08c379a00000000000000000000000000000000000000000000000000000000081526004016101f49061085c565b60405180910390fd5b60008085815481106102125761021161087c565b5b90600052602060002090600302016040518060600160405290816000820160009054906101000a900473ffffffffffffffffffffffffffffffffffffffff1673ffffffffffffffffffffffffffffffffffffffff1673ffffffffffffffffffffffffffffffffffffffff168152602001600182015481526020016002820154815250509050806000015181602001518260400151935093509350509193909250565b600081815481106102c457600080fd5b90600052602060002090600302016000915090508060000160009054906101000a900473ffffffffffffffffffffffffffffffffffffffff16908060010154908060020154905083565b60008060006001600085815260200190815260200160002060009054906101000a900460ff1661034857600080600092509250925061040f565b60006002600086815260200190815260200160002054905060008082815481106103755761037461087c565b5b90600052602060002090600302016040518060600160405290816000820160009054906101000a900473ffffffffffffffffffffffffffffffffffffffff1673ffffffffffffffffffffffffffffffffffffffff1673ffffffffffffffffffffffffffffffffffffffff16815260200160018201548152602001600282015481525050905060018160000151826040015194509450945050505b9193909250565b6001600082815260200190815260200160002060009054906101000a900460ff1615610477576040517f08c379a000000000000000000000000000000000000000000000000000000000815260040161046e906108f7565b60405180910390fd5b600080805490509050600060405180606001604052803373ffffffffffffffffffffffffffffffffffffffff16815260200184815260200142815250908060018154018082558091505060019003906000526020600020906003020160009091909190915060008201518160000160006101000a81548173ffffffffffffffffffffffffffffffffffffffff021916908373ffffffffffffffffffffffffffffffffffffffff16021790555060208201518160010155604082015181600201555050600180600084815260200190815260200160002060006101000a81548160ff0219169083151502179055508060026000848152602001908152602001600020819055503373ffffffffffffffffffffffffffffffffffffffff167f1371f9f7e37fda34a0eba653c0282fd8512f148a199e30164a36ebeaecb15cdc8342846040516105c693929190610917565b60405180910390a25050565b60016020528060005260406000206000915054906101000a900460ff1681565b60008080549050905090565b60026020528060005260406000206000915090505481565b600080fd5b6000819050919050565b61062e8161061b565b811461063957600080fd5b50565b60008135905061064b81610625565b92915050565b60006020828403121561066757610666610616565b5b60006106758482850161063c565b91505092915050565b600073ffffffffffffffffffffffffffffffffffffffff82169050919050565b60006106a98261067e565b9050919050565b6106b98161069e565b82525050565b6000819050919050565b6106d2816106bf565b82525050565b6106e18161061b565b82525050565b60006060820190506106fc60008301866106b0565b61070960208301856106c9565b61071660408301846106d8565b949350505050565b610727816106bf565b811461073257600080fd5b50565b6000813590506107448161071e565b92915050565b6000602082840312156107605761075f610616565b5b600061076e84828501610735565b91505092915050565b60008115159050919050565b61078c81610777565b82525050565b60006060820190506107a76000830186610783565b6107b460208301856106b0565b6107c160408301846106d8565b949350505050565b60006020820190506107de6000830184610783565b92915050565b60006020820190506107f960008301846106d8565b92915050565b600082825260208201905092915050565b7f496e646578206f7574206f6620626f756e647300000000000000000000000000600082015250565b60006108466013836107ff565b915061085182610810565b602082019050919050565b6000602082019050818103600083015261087581610839565b9050919050565b7f4e487b7100000000000000000000000000000000000000000000000000000000600052603260045260246000fd5b7f417474656e64616e636520616c7265616479207265636f726465640000000000600082015250565b60006108e1601b836107ff565b91506108ec826108ab565b602082019050919050565b60006020820190508181036000830152610910816108d4565b9050919050565b600060608201905061092c60008301866106c9565b61093960208301856106d8565b61094660408301846106d8565b94935050505056fea26469706673582212203fdfd4c357ce7f83cf4ebf9629403aaec0eaa8c1307134f7a172f05c4ac8472c64736f6c63430008130033",
  "immutableReferences": {},
  "source": "// SPDX-License-Identifier: MIT\npragma solidity ^0.8.19;\n\n/// @title AttendanceRecord\n/// @author AMS DApp — University of East London (CN6035)\n/// @notice Immutable ledger of attendance commitments. The backend hashes\n///         (studentId, courseId, date) off-chain and submits only the digest,\n///         so no PII is ever written to the chain.\n/// @dev Each hash may be recorded at most once. Duplicates revert so the\n///      contract doubles as an anti-replay guard for the check-in flow.\ncontract AttendanceRecord {\n    /// @notice A single attendance commitment.\n    /// @param student        Address that submitted the record (admin signer).\n    /// @param attendanceHash keccak256(studentId || courseId || date).\n    /// @param timestamp      Block timestamp when the record was mined.\n    struct Record {\n        address student;\n        bytes32 attendanceHash;\n        uint256 timestamp;\n    }\n\n    /// @notice Append-only list of every recorded attendance.\n    Record[] public records;\n\n    /// @notice Fast look-up: was this hash ever submitted?\n    mapping(bytes32 => bool) public hashExists;\n\n    /// @notice Index into `records` for a given hash (valid iff hashExists).\n    mapping(bytes32 => uint256) public hashToIndex;\n\n    /// @notice Emitted on every successful recordAttendance call.\n    /// @param student        msg.sender for the transaction.\n    /// @param attendanceHash The hash committed on-chain.\n    /// @param timestamp      Block timestamp of inclusion.\n    /// @param recordIndex    Position within `records`.\n    event AttendanceRecorded(\n        address indexed student,\n        bytes32 attendanceHash,\n        uint256 timestamp,\n        uint256 recordIndex\n    );\n\n    /// @notice Commits a new attendance hash to the ledger.\n    /// @dev Reverts if the same hash has already been recorded.\n    /// @param _attendanceHash keccak256 digest produced by the backend.\n    function recordAttendance(bytes32 _attendanceHash) public {\n        require(!hashExists[_attendanceHash], \"Attendance already recorded\");\n\n        uint256 index = records.length;\n        records.push(Record({\n            student: msg.sender,\n            attendanceHash: _attendanceHash,\n            timestamp: block.timestamp\n        }));\n\n        hashExists[_attendanceHash] = true;\n        hashToIndex[_attendanceHash] = index;\n\n        emit AttendanceRecorded(msg.sender, _attendanceHash, block.timestamp, index);\n    }\n\n    /// @notice Look up a hash and return the originating address + timestamp.\n    /// @param _attendanceHash Hash to verify.\n    /// @return exists    True iff the hash has been recorded.\n    /// @return student   Address that submitted the record (zero if absent).\n    /// @return timestamp Block timestamp of inclusion (zero if absent).\n    function verifyAttendance(bytes32 _attendanceHash) public view returns (bool exists, address student, uint256 timestamp) {\n        if (!hashExists[_attendanceHash]) {\n            return (false, address(0), 0);\n        }\n        uint256 index = hashToIndex[_attendanceHash];\n        Record memory r = records[index];\n        return (true, r.student, r.timestamp);\n    }\n\n    /// @notice Total number of records ever committed.\n    /// @return Length of the `records` array.\n    function getRecordCount() public view returns (uint256) {\n        return records.length;\n    }\n\n    /// @notice Fetch a record by its index in insertion order.\n    /// @param _index Zero-based index into `records`.\n    /// @return student        Submitter address.\n    /// @return attendanceHash The committed hash.\n    /// @return timestamp      Block timestamp of inclusion.\n    function getRecord(uint256 _index) public view returns (address student, bytes32 attendanceHash, uint256 timestamp) {\n        require(_index < records.length, \"Index out of bounds\");\n        Record memory r = records[_index];\n        return (r.student, r.attendanceHash, r.timestamp);\n    }\n}\n",
  "sourcePath": "/Users/amrinder/Desktop/UNI/3rd year/CN6035/ams-dapp/ams_web/backend/contracts/AttendanceRecord.sol",
  "compiler": {
    "name": "solc",
    "version": "0.8.19+commit.7dd6d404.Emscripten.clang"
  },
  "schemaVersion": "3.4.16",
  "updatedAt": "2026-04-22T10:32:12.237Z",
  "devdoc": {
    "author": "AMS DApp — University of East London (CN6035)",
    "details": "Each hash may be recorded at most once. Duplicates revert so the      contract doubles as an anti-replay guard for the check-in flow.",
    "events": {
      "AttendanceRecorded(address,bytes32,uint256,uint256)": {
        "params": {
          "attendanceHash": "The hash committed on-chain.",
          "recordIndex": "Position within `records`.",
          "student": "msg.sender for the transaction.",
          "timestamp": "Block timestamp of inclusion."
        }
      }
    },
    "kind": "dev",
    "methods": {
      "getRecord(uint256)": {
        "params": {
          "_index": "Zero-based index into `records`."
        },
        "returns": {
          "attendanceHash": "The committed hash.",
          "student": "       Submitter address.",
          "timestamp": "     Block timestamp of inclusion."
        }
      },
      "getRecordCount()": {
        "returns": {
          "_0": "Length of the `records` array."
        }
      },
      "recordAttendance(bytes32)": {
        "details": "Reverts if the same hash has already been recorded.",
        "params": {
          "_attendanceHash": "keccak256 digest produced by the backend."
        }
      },
      "verifyAttendance(bytes32)": {
        "params": {
          "_attendanceHash": "Hash to verify."
        },
        "returns": {
          "exists": "   True iff the hash has been recorded.",
          "student": "  Address that submitted the record (zero if absent).",
          "timestamp": "Block timestamp of inclusion (zero if absent)."
        }
      }
    },
    "title": "AttendanceRecord",
    "version": 1
  },
  "userdoc": {
    "events": {
      "AttendanceRecorded(address,bytes32,uint256,uint256)": {
        "notice": "Emitted on every successful recordAttendance call."
      }
    },
    "kind": "user",
    "methods": {
      "getRecord(uint256)": {
        "notice": "Fetch a record by its index in insertion order."
      },
      "getRecordCount()": {
        "notice": "Total number of records ever committed."
      },
      "hashExists(bytes32)": {
        "notice": "Fast look-up: was this hash ever submitted?"
      },
      "hashToIndex(bytes32)": {
        "notice": "Index into `records` for a given hash (valid iff hashExists)."
      },
      "recordAttendance(bytes32)": {
        "notice": "Commits a new attendance hash to the ledger."
      },
      "records(uint256)": {
        "notice": "Append-only list of every recorded attendance."
      },
      "verifyAttendance(bytes32)": {
        "notice": "Look up a hash and return the originating address + timestamp."
      }
    },
    "notice": "Immutable ledger of attendance commitments. The backend hashes         (studentId, courseId, date) off-chain and submits only the digest,         so no PII is ever written to the chain.",
    "version": 1
  }
}