{
  "_format": "hh-sol-artifact-1",
  "contractName": "AttendanceNFT",
  "sourceName": "contracts/AttendanceNFT.sol",
  "abi": [
    {
      "anonymous": false,
      "inputs": [
        {
          "indexed": true,
          "internalType": "uint256",
          "name": "tokenId",
          "type": "uint256"
        },
        {
          "indexed": true,
          "internalType": "address",
          "name": "student",
          "type": "address"
        },
        {
          "indexed": false,
          "internalType": "string",
          "name": "studentId",
          "type": "string"
        },
        {
          "indexed": false,
          "internalType": "string",
          "name": "tier",
          "type": "string"
        },
        {
          "indexed": false,
          "internalType": "uint256",
          "name": "sessionsAttended",
          "type": "uint256"
        },
        {
          "indexed": false,
          "internalType": "uint256",
          "name": "issuedAt",
          "type": "uint256"
        }
      ],
      "name": "CertificateMinted",
      "type": "event"
    },
    {
      "inputs": [
        {
          "internalType": "uint256",
          "name": "",
          "type": "uint256"
        }
      ],
      "name": "certificates",
      "outputs": [
        {
          "internalType": "address",
          "name": "student",
          "type": "address"
        },
        {
          "internalType": "string",
          "name": "studentId",
          "type": "string"
        },
        {
          "internalType": "string",
          "name": "tier",
          "type": "string"
        },
        {
          "internalType": "uint256",
          "name": "sessionsAttended",
          "type": "uint256"
        },
        {
          "internalType": "uint256",
          "name": "issuedAt",
          "type": "uint256"
        }
      ],
      "stateMutability": "view",
      "type": "function"
    },
    {
      "inputs": [
        {
          "internalType": "uint256",
          "name": "_tokenId",
          "type": "uint256"
        }
      ],
      "name": "getCertificate",
      "outputs": [
        {
          "internalType": "address",
          "name": "student",
          "type": "address"
        },
        {
          "internalType": "string",
          "name": "studentId",
          "type": "string"
        },
        {
          "internalType": "string",
          "name": "tier",
          "type": "string"
        },
        {
          "internalType": "uint256",
          "name": "sessionsAttended",
          "type": "uint256"
        },
        {
          "internalType": "uint256",
          "name": "issuedAt",
          "type": "uint256"
        }
      ],
      "stateMutability": "view",
      "type": "function"
    },
    {
      "inputs": [
        {
          "internalType": "address",
          "name": "_student",
          "type": "address"
        }
      ],
      "name": "getStudentCertificates",
      "outputs": [
        {
          "internalType": "uint256[]",
          "name": "",
          "type": "uint256[]"
        }
      ],
      "stateMutability": "view",
      "type": "function"
    },
    {
      "inputs": [],
      "name": "getTotalMinted",
      "outputs": [
        {
          "internalType": "uint256",
          "name": "",
          "type": "uint256"
        }
      ],
      "stateMutability": "view",
      "type": "function"
    },
    {
      "inputs": [
        {
          "internalType": "address",
          "name": "",
          "type": "address"
        },
        {
          "internalType": "string",
          "name": "",
          "type": "string"
        }
      ],
      "name": "hasTier",
      "outputs": [
        {
          "internalType": "bool",
          "name": "",
          "type": "bool"
        }
      ],
      "stateMutability": "view",
      "type": "function"
    },
    {
      "inputs": [
        {
          "internalType": "address",
          "name": "_student",
          "type": "address"
        },
        {
          "internalType": "string",
          "name": "_studentId",
          "type": "string"
        },
        {
          "internalType": "string",
          "name": "_tier",
          "type": "string"
        },
        {
          "internalType": "uint256",
          "name": "_sessionsAttended",
          "type": "uint256"
        }
      ],
      "name": "mintCertificate",
      "outputs": [
        {
          "internalType": "uint256",
          "name": "",
          "type": "uint256"
        }
      ],
      "stateMutability": "nonpayable",
      "type": "function"
    },
    {
      "inputs": [
        {
          "internalType": "address",
          "name": "",
          "type": "address"
        },
        {
          "internalType": "uint256",
          "name": "",
          "type": "uint256"
        }
      ],
      "name": "studentCertificates",
      "outputs": [
        {
          "internalType": "uint256",
          "name": "",
          "type": "uint256"
        }
      ],
      "stateMutability": "view",
      "type": "function"
    },
    {
      "inputs": [],
      "name": "totalMinted",
      "outputs": [
        {
          "internalType": "uint256",
          "name": "",
          "type": "uint256"
        }
      ],
      "stateMutability": "view",
      "type": "function"
    }
  ],
  "bytecode": "0x608060405234801561001057600080fd5b506114c6806100206000396000f3fe608060405234801561001057600080fd5b50600436106100885760003560e01c80639993692e1161005b5780639993692e14610143578063a2309ff814610173578063c3934f0e14610191578063ebc63bc0146101c157610088565b80630ca1c5c91461008d5780633e442101146100ab57806351640fee146100db578063663b3e221461010f575b600080fd5b6100956101f1565b6040516100a291906109cf565b60405180910390f35b6100c560048036038101906100c09190610ba2565b6101fb565b6040516100d29190610c19565b60405180910390f35b6100f560048036038101906100f09190610c60565b610240565b604051610106959493929190610d1b565b60405180910390f35b61012960048036038101906101249190610c60565b61047a565b60405161013a959493929190610d1b565b60405180910390f35b61015d60048036038101906101589190610d7c565b6105f0565b60405161016a91906109cf565b60405180910390f35b61017b6108e8565b60405161018891906109cf565b60405180910390f35b6101ab60048036038101906101a69190610e1b565b6108ee565b6040516101b891906109cf565b60405180910390f35b6101db60048036038101906101d69190610e5b565b61091f565b6040516101e89190610f46565b60405180910390f35b6000600354905090565b6002602052816000526040600020818051602081018201805184825260208301602085012081835280955050505050506000915091509054906101000a900460ff1681565b6000606080600080600080549050861061028f576040517f08c379a000000000000000000000000000000000000000000000000000000000815260040161028690610fb4565b60405180910390fd5b60008087815481106102a4576102a3610fd4565b5b90600052602060002090600502016040518060a00160405290816000820160009054906101000a900473ffffffffffffffffffffffffffffffffffffffff1673ffffffffffffffffffffffffffffffffffffffff1673ffffffffffffffffffffffffffffffffffffffff16815260200160018201805461032390611032565b80601f016020809104026020016040519081016040528092919081815260200182805461034f90611032565b801561039c5780601f106103715761010080835404028352916020019161039c565b820191906000526020600020905b81548152906001019060200180831161037f57829003601f168201915b505050505081526020016002820180546103b590611032565b80601f01602080910402602001604051908101604052809291908181526020018280546103e190611032565b801561042e5780601f106104035761010080835404028352916020019161042e565b820191906000526020600020905b81548152906001019060200180831161041157829003601f168201915b5050505050815260200160038201548152602001600482015481525050905080600001518160200151826040015183606001518460800151955095509550955095505091939590929450565b6000818154811061048a57600080fd5b90600052602060002090600502016000915090508060000160009054906101000a900473ffffffffffffffffffffffffffffffffffffffff16908060010180546104d390611032565b80601f01602080910402602001604051908101604052809291908181526020018280546104ff90611032565b801561054c5780601f106105215761010080835404028352916020019161054c565b820191906000526020600020905b81548152906001019060200180831161052f57829003601f168201915b50505050509080600201805461056190611032565b80601f016020809104026020016040519081016040528092919081815260200182805461058d90611032565b80156105da5780601f106105af576101008083540402835291602001916105da565b820191906000526020600020905b8154815290600101906020018083116105bd57829003601f168201915b5050505050908060030154908060040154905085565b6000600260008673ffffffffffffffffffffffffffffffffffffffff1673ffffffffffffffffffffffffffffffffffffffff1681526020019081526020016000208360405161063f919061109f565b908152602001604051809103902060009054906101000a900460ff161561069b576040517f08c379a000000000000000000000000000000000000000000000000000000000815260040161069290611128565b60405180910390fd5b60008080549050905060006040518060a001604052808873ffffffffffffffffffffffffffffffffffffffff16815260200187815260200186815260200185815260200142815250908060018154018082558091505060019003906000526020600020906005020160009091909190915060008201518160000160006101000a81548173ffffffffffffffffffffffffffffffffffffffff021916908373ffffffffffffffffffffffffffffffffffffffff160217905550602082015181600101908161076891906112f4565b50604082015181600201908161077e91906112f4565b5060608201518160030155608082015181600401555050600160008773ffffffffffffffffffffffffffffffffffffffff1673ffffffffffffffffffffffffffffffffffffffff1681526020019081526020016000208190806001815401808255809150506001900390600052602060002001600090919091909150556001600260008873ffffffffffffffffffffffffffffffffffffffff1673ffffffffffffffffffffffffffffffffffffffff1681526020019081526020016000208560405161084a919061109f565b908152602001604051809103902060006101000a81548160ff02191690831515021790555060036000815480929190610882906113f5565b91905055508573ffffffffffffffffffffffffffffffffffffffff16817ff63fd96e0602d6f84e816afd7eb668e0079060a2520980c4d958038a7f177fc1878787426040516108d4949392919061143d565b60405180910390a380915050949350505050565b60035481565b6001602052816000526040600020818154811061090a57600080fd5b90600052602060002001600091509150505481565b6060600160008373ffffffffffffffffffffffffffffffffffffffff1673ffffffffffffffffffffffffffffffffffffffff1681526020019081526020016000208054806020026020016040519081016040528092919081815260200182805480156109aa57602002820191906000526020600020905b815481526020019060010190808311610996575b50505050509050919050565b6000819050919050565b6109c9816109b6565b82525050565b60006020820190506109e460008301846109c0565b92915050565b6000604051905090565b600080fd5b600080fd5b600073ffffffffffffffffffffffffffffffffffffffff82169050919050565b6000610a29826109fe565b9050919050565b610a3981610a1e565b8114610a4457600080fd5b50565b600081359050610a5681610a30565b92915050565b600080fd5b600080fd5b6000601f19601f8301169050919050565b7f4e487b7100000000000000000000000000000000000000000000000000000000600052604160045260246000fd5b610aaf82610a66565b810181811067ffffffffffffffff82111715610ace57610acd610a77565b5b80604052505050565b6000610ae16109ea565b9050610aed8282610aa6565b919050565b600067ffffffffffffffff821115610b0d57610b0c610a77565b5b610b1682610a66565b9050602081019050919050565b82818337600083830152505050565b6000610b45610b4084610af2565b610ad7565b905082815260208101848484011115610b6157610b60610a61565b5b610b6c848285610b23565b509392505050565b600082601f830112610b8957610b88610a5c565b5b8135610b99848260208601610b32565b91505092915050565b60008060408385031215610bb957610bb86109f4565b5b6000610bc785828601610a47565b925050602083013567ffffffffffffffff811115610be857610be76109f9565b5b610bf485828601610b74565b9150509250929050565b60008115159050919050565b610c1381610bfe565b82525050565b6000602082019050610c2e6000830184610c0a565b92915050565b610c3d816109b6565b8114610c4857600080fd5b50565b600081359050610c5a81610c34565b92915050565b600060208284031215610c7657610c756109f4565b5b6000610c8484828501610c4b565b91505092915050565b610c9681610a1e565b82525050565b600081519050919050565b600082825260208201905092915050565b60005b83811015610cd6578082015181840152602081019050610cbb565b60008484015250505050565b6000610ced82610c9c565b610cf78185610ca7565b9350610d07818560208601610cb8565b610d1081610a66565b840191505092915050565b600060a082019050610d306000830188610c8d565b8181036020830152610d428187610ce2565b90508181036040830152610d568186610ce2565b9050610d6560608301856109c0565b610d7260808301846109c0565b9695505050505050565b60008060008060808587031215610d9657610d956109f4565b5b6000610da487828801610a47565b945050602085013567ffffffffffffffff811115610dc557610dc46109f9565b5b610dd187828801610b74565b935050604085013567ffffffffffffffff811115610df257610df16109f9565b5b610dfe87828801610b74565b9250506060610e0f87828801610c4b565b91505092959194509250565b60008060408385031215610e3257610e316109f4565b5b6000610e4085828601610a47565b9250506020610e5185828601610c4b565b9150509250929050565b600060208284031215610e7157610e706109f4565b5b6000610e7f84828501610a47565b91505092915050565b600081519050919050565b600082825260208201905092915050565b6000819050602082019050919050565b610ebd816109b6565b82525050565b6000610ecf8383610eb4565b60208301905092915050565b6000602082019050919050565b6000610ef382610e88565b610efd8185610e93565b9350610f0883610ea4565b8060005b83811015610f39578151610f208882610ec3565b9750610f2b83610edb565b925050600181019050610f0c565b5085935050505092915050565b60006020820190508181036000830152610f608184610ee8565b905092915050565b7f546f6b656e20646f6573206e6f74206578697374000000000000000000000000600082015250565b6000610f9e601483610ca7565b9150610fa982610f68565b602082019050919050565b60006020820190508181036000830152610fcd81610f91565b9050919050565b7f4e487b7100000000000000000000000000000000000000000000000000000000600052603260045260246000fd5b7f4e487b7100000000000000000000000000000000000000000000000000000000600052602260045260246000fd5b6000600282049050600182168061104a57607f821691505b60208210810361105d5761105c611003565b5b50919050565b600081905092915050565b600061107982610c9c565b6110838185611063565b9350611093818560208601610cb8565b80840191505092915050565b60006110ab828461106e565b915081905092915050565b7f53747564656e7420616c7265616479206861732074686973207469657220636560008201527f7274696669636174650000000000000000000000000000000000000000000000602082015250565b6000611112602983610ca7565b915061111d826110b6565b604082019050919050565b6000602082019050818103600083015261114181611105565b9050919050565b60008190508160005260206000209050919050565b60006020601f8301049050919050565b600082821b905092915050565b6000600883026111aa7fffffffffffffffffffffffffffffffffffffffffffffffffffffffffffffffff8261116d565b6111b4868361116d565b95508019841693508086168417925050509392505050565b6000819050919050565b60006111f16111ec6111e7846109b6565b6111cc565b6109b6565b9050919050565b6000819050919050565b61120b836111d6565b61121f611217826111f8565b84845461117a565b825550505050565b600090565b611234611227565b61123f818484611202565b505050565b5b818110156112635761125860008261122c565b600181019050611245565b5050565b601f8211156112a85761127981611148565b6112828461115d565b81016020851015611291578190505b6112a561129d8561115d565b830182611244565b50505b505050565b600082821c905092915050565b60006112cb600019846008026112ad565b1980831691505092915050565b60006112e483836112ba565b9150826002028217905092915050565b6112fd82610c9c565b67ffffffffffffffff81111561131657611315610a77565b5b6113208254611032565b61132b828285611267565b600060209050601f83116001811461135e576000841561134c578287015190505b61135685826112d8565b8655506113be565b601f19841661136c86611148565b60005b828110156113945784890151825560018201915060208501945060208101905061136f565b868310156113b157848901516113ad601f8916826112ba565b8355505b6001600288020188555050505b505050505050565b7f4e487b7100000000000000000000000000000000000000000000000000000000600052601160045260246000fd5b6000611400826109b6565b91507fffffffffffffffffffffffffffffffffffffffffffffffffffffffffffffffff8203611432576114316113c6565b5b600182019050919050565b600060808201905081810360008301526114578187610ce2565b9050818103602083015261146b8186610ce2565b905061147a60408301856109c0565b61148760608301846109c0565b9594505050505056fea2646970667358221220e71f61f0a7a4de8dbc408a18e48d4b33c3257e55eba25b00219e1fd8342e2c6c64736f6c63430008130033",
  "linkReferences": {},
  "deployedLinkReferences": {}
}